:020000040800F2
:10000000000400204701000885010008870100085E
:100010008B0100088F010008930100080000000018
:100020000000000000000000000000009701000830
:1000300099010008000000009B0100089D010008D4
:1000400067010008670100086701000867010008F0
:1000500067010008670100086701000867010008E0
:1000600067010008670100086701000867010008D0
:1000700067010008670100086701000867010008C0
:1000800067010008670100086701000867010008B0
:1000900067010008670100086701000867010008A0
:1000A0006701000867010008670100086701000890
:1000B0006701000867010008670100086701000880
:1000C0006701000867010008670100086701000870
:1000D0006701000867010008670100086701000860
:1000E0006701000867010008670100086701000850
:1000F0006701000867010008670100086701000840
:10010000670100086701000867010008670100082F
:10011000670100086701000867010008670100081F
:10012000670100086701000867010008670100080F
:10013000DFF80CD000F058FE0048004775010008B9
:1001400018020020704708488047084981F3088852
:1001500007480047FEE7FEE7FEE7FEE7FEE7FEE7AB
:10016000FEE7FEE7FEE7FEE7450100081802002073
:100170003101000800F00DFE00F012F801E000F07F
:1001800065F8FCE7704700BFFEE700BFFEE700BF71
:10019000FEE700BFFEE770477047704770470000FA
:1001A00000B585B0012144F2040000F061FB4FF47A
:1001B0000070ADF8100018208DF8130003208DF8A2
:1001C000120004A9294800F0BDF84FF48060ADF892
:1001D000100004208DF8130004A9244800F0B2F8A0
:1001E0004FF4E13000900020ADF80400ADF80600B7
:1001F000ADF80800ADF80C000C20ADF80A00694617
:100200001B4800F0E6FB0121194800F050FC05B046
:1002100000BD10B504462146154800F0B0FC00BFF3
:100220008021134800F002FD0028F9D010BD10B560
:10023000044620210E4800F0F9FC08B9002010BD4A
:100240000B4800F0A0FC20700120F8E708B5002062
:1002500000900AE004E09DF80010054800F08FFCD3
:100260006846FFF7E4FF0028F5D1F3E700080140F6
:100270000038014010B50446C549601A8C422FD0A1
:1002800009DCC448201810D0B0F5806F16D0B0F546
:10029000006F4AD11BE0B0F5806F2AD0B0F5006F37
:1002A00030D0B0F5406F40D135E00121042000F09E
:1002B000F9FA0021042000F0F5FA37E001210820C6
:1002C00000F0F0FA0021082000F0ECFA2EE0012105
:1002D000102000F0E7FA0021102000F0E3FA25E0FA
:1002E0000121202000F0DEFA0021202000F0DAFABF
:1002F0001CE00121402000F0D5FA0021402000F050
:10030000D1FA13E00121802000F0CCFA00218020F6
:1003100000F0C8FA0AE00121080200F0C3FA002147
:100320004FF4807000F0BEFA00E000BF00BF10BDC7
:1003300010B50121084600F0B5FA0021012000F0B7
:10034000B1FA10BD2DE9F04102460025002600203B
:1003500000230024002791F803C00CF00F0591F84A
:1003600003C01CF0100F03D091F802C04CEA050541
:1003700091F800C0BCF1000F31D0146800202BE0D0
:100380004FF0010C0CFA00F3B1F800C00CEA0306C0
:100390009E4220D183004FF00F0C0CFA03F7BC43B0
:1003A00005FA03FC4CEA040491F803C0BCF1280FE1
:1003B00006D14FF0010C0CFA00FCC2F814C00AE0A0
:1003C00091F803C0BCF1480F05D14FF0010C0CFAB5
:1003D00000FCC2F810C0401C0828D1D31460B1F84A
:1003E00000C0BCF1FF0F34DD546800202EE000F1A6
:1003F000080C4FF0010808FA0CF3B1F800C00CEA41
:1004000003069E4221D183004FF00F0C0CFA03F734
:10041000BC4305FA03FC4CEA040491F803C0BCF1A8
:10042000280F05D100F1080C08FA0CF8C2F8148066
:1004300091F803C0BCF1480F07D100F1080C4FF050
:10044000010808FA0CF8C2F81080401C0828CED326
:100450005460BDE8F0814FF6FF7101800221817088
:100460000421C17070470246002093680B4201D0FE
:10047000012000E0002070470146886880B2704784
:1004800002460020D3680B4201D0012000E000208A
:1004900070470146C86880B270470161704741618A
:1004A00070470AB1016100E041617047C160704767
:1004B0004FF480320A43826181618261826982697C
:1004C000704702460020344B18684FF6807318407E
:1004D00040EA02100843304B186070472F49C8614A
:1004E0007047F0B50A4600230024002100252A4E5B
:1004F0007168C0F3034583B200F44016B6F5401F9F
:1005000008D121F07061244E766826F07066224F83
:100510007E6012E000F48016B6F5801F06D1032637
:1005200006FA05F4A14341F0706106E0460D36017C
:1005300003FA06F6B14341F0706122B1460D36016F
:1005400003FA06F63143144E7160F0BD30B5002257
:100550008B071C0F0F2303FA04F20F4B08338C1088
:1005600053F8243093430C4C08348D1044F8253054
:1005700023468C1053F824308C07240F00FA04F41F
:100580002343054C08348D1044F8253030BD00005D
:100590000014014000F8FEBF0000014000002042AE
:1005A000DC48006840F00100DA490860084640680D
:1005B000D9490840D749486008460068D7490840EB
:1005C000D44908600846006820F480200860084686
:1005D000406820F4FE004860002088607047CD49E4
:1005E000096821F48031CB4A11601146096821F471
:1005F00080211160B0F5803F03D0B0F5802F0ED17F
:1006000006E0C449096841F48031C24A116007E03C
:10061000C049096841F4A021BE4A116000E000BF52
:1006200000BF704710B501460022002300204A1188
:10063000012A02D1B74C236806E0022A02D1B54C48
:10064000236A01E0B34C636A01F01F020124944065
:100650001C4201D0012000E0002010BD38B5002070
:1006600000900024002500BF3120FFF7DBFF054686
:100670000098401C00901DB90098B0F5A06FF3D110
:100680003120FFF7CFFF08B1012400E0002420460D
:1006900038BD014600209F4A106820F0F80040EA6B
:1006A000C100106070479E490860704702460020F4
:1006B000984B586820F47C1042EA01031843954B8C
:1006C0005860704796490866704701460020914A75
:1006D000506820F003000843506070478D48406820
:1006E00000F00C007047014600208A4A506820F054
:1006F000F00008435060704701460020854A50686A
:1007000020F4E06008435060704701460020814AB1
:10071000506820F4605040EAC1005060704729B131
:100720007C4A527A02437B4B5A7204E0794A527AED
:100730008243784B5A7270477A4908607047014685
:100740000020744A506820F44040084350607047CD
:100750000021754A11706F4A82F82010012802D0DA
:10076000042808D103E001216F4A117004E005213B
:100770006D4A117000E000BF00BF70476B49086010
:1007800070476449096A0143624A116270476749C8
:1007900044390860704730B500210022002400234E
:1007A0005C4D6D6805F00C0121B1042905D00829C4
:1007B00023D105E05E4D056022E05D4D05601FE040
:1007C000544D6D6805F47012022505EB9242514DAF
:1007D0006D6805F480341CB9564D554305600BE037
:1007E0004C4D6D6815F4003F03D0524D55430560E4
:1007F00002E04F4D5543056002E04D4D056000BFDE
:1008000000BF444D6D6805F0F00109094A4D6B5C6D
:100810000568DD4045603F4D6D6805F4E061090AFB
:10082000454D6B5C4568DD4085603A4D6D6805F46B
:100830006051C90A404D6B5C4568DD40C560354D6F
:100840006D6805F44041890B3C4D6B5CC568B5FB98
:10085000F3F5056130BD29B12E4A526902432D4B93
:100860005A6104E02B4A526982432A4B5A6170470D
:1008700029B1284A92690243264B9A6104E0254A2D
:1008800092698243234B9A61704729B1214AD26908
:100890000243204BDA6104E01E4AD26982431D4BB9
:1008A000DA61704729B11B4AD2680243194BDA60FA
:1008B00004E0184AD2688243164BDA60704729B1C7
:1008C000144A12690243134B1A6104E0114A126977
:1008D0008243104B1A6170471449403908607047D1
:1008E0000F49C86470470B49C87170470948406A8E
:1008F00040F0807007494862704701460020054A71
:1009000092680A4201D0012000E0002070470149AE
:1009100088727047001002400000FFF8FFFFF6FEEB
:1009200000004242D800424220100240800442426D
:1009300000127A0000093D00000000201000002095
:1009400010B50446D749601A8C422BD006DCD64835
:10095000201813D0B0F5806F38D119E0B0F5806F52
:100960002AD0B0F56C4F31D101218803FFF79AFFEF
:1009700000214FF48040FFF795FF28E00121480453
:10098000FFF79DFF00214FF40030FFF798FF1EE0B6
:1009900001218804FFF793FF00214FF48020FFF727
:1009A0008EFF14E00121C804FFF789FF00214FF4F6
:1009B0000020FFF784FF0AE001210805FFF77FFF11
:1009C00000214FF48010FFF77AFF00E000BF00BF66
:1009D00010BD2DE9F04786B005460E460024A2461C
:1009E00000BF00BF00272F462C8A4CF6FF70044042
:1009F000F08804432C82AC894EF6F3100440B08892
:100A000031890843718908430443AC81AC8A4FF6AD
:100A1000FF400440B0890443AC8201A8FFF7BBFE4D
:100A2000A248874202D1DDF810A001E0DDF80CA059
:100A30000AEBCA0000EB0A1031688900B0FBF1F83C
:100A40006420B8FBF0F004012009642101FB108947
:100A5000322000EB0910B0FBF1F000F00F0004436E
:100A60002C8106B0BDE8F0874FF4165101600021DB
:100A70008180C18001810C214181002181817047E9
:100A800010B502460020108A4FF2FF0318400B8871
:100A90004C8823438C882343CC88234318431082FB
:100AA00010BD0021018041808180C180704721B14B
:100AB000828942F40052828104E082894DF6FF73FC
:100AC0001A4082817047F0B50346002400260025B5
:100AD00000201846C1F3421401F01F06012707FA4F
:100AE00006F5012C01D10C3004E0022C01D11030AC
:100AF00000E014301AB107682F43076002E007686E
:100B0000AF430760F0BD1AB1838A0B43838202E0D2
:100B1000838A8B4383827047028A4FF6F0731A40B0
:100B20000282028A0A430282704782894FF2FF736F
:100B30001A40828182890A438281704721B1828969
:100B400042F00202828104E082894FF6FD731A406E
:100B500082817047028A4FF6DF731A400282028A4E
:100B60000A430282704721B1028A42F48042028223
:100B700004E0028A4BF6FF731A4002827047C1F309
:100B800008028280704701468888C0F308007047D9
:100B9000818941F0010181817047028BD2B20283C9
:100BA000028B42EA012202837047028B02F47F42E9
:100BB0000283028B0A430283704721B1828A42F08A
:100BC0002002828204E0828A4FF6DF731A4082821A
:100BD000704721B1828A42F01002828204E0828A48
:100BE0004FF6EF731A408282704721B1828A42F039
:100BF0000802828204E0828A4FF6F7731A408282EA
:100C00007047828A4FF6FB731A408282828A0A43B7
:100C10008282704721B1828A42F00202828204E01D
:100C2000828A4FF6FD731A40828270470246002086
:100C300013880B4201D0012000E000207047CA4316
:100C40000280704770B502460B4600240021002543
:100C50000020C3F3421503F01F01012606FA01F13B
:100C6000012D02D19689314006E0022D02D1168A6B
:100C7000314001E0968A31401C12012606FA04F444
:100C80001688344011B10CB1012000E0002070BD85
:100C900010B5002200230A1201249440A3B2DC43C1
:100CA000048010BD004C004000BCFFBF0038014074
:100CB0000CB50020019000904748006840F4803057
:100CC0004549086000BF4448006800F400300090C7
:100CD0000198401C0190009818B90198B0F5A06FD8
:100CE000F1D13D48006810F4003F02D0012000908F
:100CF00001E0002000900098012843D137480068A7
:100D000040F01000354908600846006820F00300F4
:100D100008600846006840F0020008602E484068FD
:100D20002D4948600846406848600846406840F4DD
:100D3000806048600846406820F47C10486008469F
:100D4000406840F4E81048600846006840F0807051
:100D5000086000BF2048006810F0007FFAD01E48ED
:100D6000406820F003001C4948600846406840F095
:100D70000200486000BF1848406800F00C000828D6
:100D8000F9D101E000BFFEE70CBD10B5FFF790FF01
:100D900010BD10B51048006840F001000E49086011
:100DA000084640680E4908400B49486008460068FC
:100DB0000C490840084908600846006820F4802073
:100DC00008600846406820F4FE0048600020886003
:100DD000FFF7DBFF10BD00000010024000200240C2
:100DE0000000FFF8FFFFF6FE064C074D06E0E06846
:100DF00040F0010394E8070098471034AC42F6D362
:100E0000FFF79AF92C0E00084C0E000802E008C803
:100E1000121F08C1002AFAD170477047002001E074
:100E200001C1121F002AFBD1704700004C0E0008C0
:100E300000000020140000000C0E0008600E0008E6
:100E400014000020040200001C0E00080000000036
:100E5000010203040102030406070809020406084C
:0400000508000147A7
:00000001FF
